{
  "contractName": "CryptArtifacts",
  "abi": [
    {
      "constant": false,
      "inputs": [
        {
          "name": "_artId1",
          "type": "bytes32"
        },
        {
          "name": "_artId2",
          "type": "bytes32"
        }
      ],
      "name": "mixArts",
      "outputs": [
        {
          "name": "",
          "type": "bytes32"
        }
      ],
      "payable": false,
      "stateMutability": "nonpayable",
      "type": "function"
    },
    {
      "constant": false,
      "inputs": [
        {
          "name": "_name",
          "type": "string"
        }
      ],
      "name": "regMaster",
      "outputs": [],
      "payable": false,
      "stateMutability": "nonpayable",
      "type": "function"
    },
    {
      "constant": true,
      "inputs": [
        {
          "name": "_artId",
          "type": "bytes32"
        },
        {
          "name": "_fieldId",
          "type": "uint8"
        }
      ],
      "name": "getArtifactField",
      "outputs": [
        {
          "name": "",
          "type": "uint16"
        }
      ],
      "payable": false,
      "stateMutability": "view",
      "type": "function"
    },
    {
      "constant": true,
      "inputs": [],
      "name": "owner",
      "outputs": [
        {
          "name": "",
          "type": "address"
        }
      ],
      "payable": false,
      "stateMutability": "view",
      "type": "function"
    },
    {
      "constant": false,
      "inputs": [
        {
          "name": "_fieldId",
          "type": "uint16"
        }
      ],
      "name": "orderArt",
      "outputs": [
        {
          "name": "",
          "type": "bytes32"
        }
      ],
      "payable": true,
      "stateMutability": "payable",
      "type": "function"
    },
    {
      "constant": true,
      "inputs": [
        {
          "name": "idx",
          "type": "uint8"
        }
      ],
      "name": "getRandValue",
      "outputs": [
        {
          "name": "",
          "type": "uint8"
        }
      ],
      "payable": false,
      "stateMutability": "view",
      "type": "function"
    },
    {
      "constant": false,
      "inputs": [
        {
          "name": "newOwner",
          "type": "address"
        }
      ],
      "name": "transferOwnership",
      "outputs": [],
      "payable": false,
      "stateMutability": "nonpayable",
      "type": "function"
    },
    {
      "inputs": [],
      "payable": false,
      "stateMutability": "nonpayable",
      "type": "constructor"
    },
    {
      "anonymous": false,
      "inputs": [
        {
          "indexed": true,
          "name": "sender",
          "type": "address"
        },
        {
          "indexed": true,
          "name": "artId",
          "type": "bytes32"
        }
      ],
      "name": "ArtOrdered",
      "type": "event"
    },
    {
      "anonymous": false,
      "inputs": [
        {
          "indexed": true,
          "name": "artId",
          "type": "bytes32"
        }
      ],
      "name": "ArtDestroyed",
      "type": "event"
    },
    {
      "anonymous": false,
      "inputs": [
        {
          "indexed": true,
          "name": "sender",
          "type": "address"
        },
        {
          "indexed": true,
          "name": "artId",
          "type": "bytes32"
        }
      ],
      "name": "ArtMixed",
      "type": "event"
    },
    {
      "anonymous": false,
      "inputs": [
        {
          "indexed": true,
          "name": "sender",
          "type": "address"
        },
        {
          "indexed": false,
          "name": "masterId",
          "type": "uint256"
        }
      ],
      "name": "MasterCreated",
      "type": "event"
    },
    {
      "anonymous": false,
      "inputs": [
        {
          "indexed": true,
          "name": "previousOwner",
          "type": "address"
        },
        {
          "indexed": true,
          "name": "newOwner",
          "type": "address"
        }
      ],
      "name": "OwnershipTransferred",
      "type": "event"
    }
  ],
  "bytecode": "0x606060405234156200001057600080fd5b336000806101000a81548173ffffffffffffffffffffffffffffffffffffffff021916908373ffffffffffffffffffffffffffffffffffffffff160217905550620000a46040805190810160405280600581526020017f41646d696e000000000000000000000000000000000000000000000000000000815250620000aa64010000000002620006b0176401000000009004565b620004ef565b620000b4620002b3565b60008282602001819052506001808054806001018281620000d691906200030f565b9160005260206000209060040201600085909190915060008201518160000160006101000a81548173ffffffffffffffffffffffffffffffffffffffff021916908373ffffffffffffffffffffffffffffffffffffffff16021790555060208201518160010190805190602001906200015192919062000344565b5060408201518160020160006101000a81548161ffff021916908361ffff16021790555060608201518160020160026101000a81548161ffff021916908361ffff16021790555060808201518160020160046101000a81548163ffffffff021916908363ffffffff160217905550505003905080600260003373ffffffffffffffffffffffffffffffffffffffff1673ffffffffffffffffffffffffffffffffffffffff168152602001908152602001600020819055506001600360003373ffffffffffffffffffffffffffffffffffffffff1673ffffffffffffffffffffffffffffffffffffffff16815260200190815260200160002060006101000a81548160ff0219169083151502179055503373ffffffffffffffffffffffffffffffffffffffff167f411ca9317af07545c7323b8a35f55c897af97b22cf9415d5992a5318020c7082826040518082815260200191505060405180910390a2505050565b60a060405190810160405280600073ffffffffffffffffffffffffffffffffffffffff168152602001620002e6620003cb565b8152602001600061ffff168152602001600061ffff168152602001600063ffffffff1681525090565b8154818355818115116200033f576004028160040283600052602060002091820191016200033e9190620003df565b5b505050565b828054600181600116156101000203166002900490600052602060002090601f016020900481019282601f106200038757805160ff1916838001178555620003b8565b82800160010185558215620003b8579182015b82811115620003b75782518255916020019190600101906200039a565b5b509050620003c791906200047b565b5090565b602060405190810160405280600081525090565b6200047891905b808211156200047457600080820160006101000a81549073ffffffffffffffffffffffffffffffffffffffff0219169055600182016000620004299190620004a3565b6002820160006101000a81549061ffff02191690556002820160026101000a81549061ffff02191690556002820160046101000a81549063ffffffff021916905550600401620003e6565b5090565b90565b620004a091905b808211156200049c57600081600090555060010162000482565b5090565b90565b50805460018160011615610100020316600290046000825580601f10620004cb5750620004ec565b601f016020900490600052602060002090810190620004eb91906200047b565b5b50565b61184e80620004ff6000396000f300606060405260043610610083576000357c0100000000000000000000000000000000000000000000000000000000900463ffffffff16806307829577146100885780637a4a3718146100d85780637e0c59f2146101355780638da5cb5b14610184578063e7db2d8f146101d9578063e823451f14610211578063f2fde38b14610251575b600080fd5b341561009357600080fd5b6100ba6004808035600019169060200190919080356000191690602001909190505061028a565b60405180826000191660001916815260200191505060405180910390f35b34156100e357600080fd5b610133600480803590602001908201803590602001908080601f016020809104026020016040519081016040528093929190818152602001838380828437820191505050505050919050506106b0565b005b341561014057600080fd5b61016660048080356000191690602001909190803560ff169060200190919050506108b3565b604051808261ffff1661ffff16815260200191505060405180910390f35b341561018f57600080fd5b61019761091a565b604051808273ffffffffffffffffffffffffffffffffffffffff1673ffffffffffffffffffffffffffffffffffffffff16815260200191505060405180910390f35b6101f3600480803561ffff1690602001909190505061093f565b60405180826000191660001916815260200191505060405180910390f35b341561021c57600080fd5b610235600480803560ff16906020019091905050610a5f565b604051808260ff1660ff16815260200191505060405180910390f35b341561025c57600080fd5b610288600480803573ffffffffffffffffffffffffffffffffffffffff16906020019091905050610d74565b005b600080600080600061029a61142b565b6102a261147b565b600080600560008c6000191660001916815260200190815260200160002060000160019054906101000a900461ffff1661ffff161115156102e257600080fd5b6000600560008b6000191660001916815260200190815260200160002060000160019054906101000a900461ffff1661ffff1611151561032157600080fd5b600260003373ffffffffffffffffffffffffffffffffffffffff1673ffffffffffffffffffffffffffffffffffffffff168152602001908152602001600020549650600060018881548110151561037457fe5b906000526020600020906004020160030160008c6000191660001916815260200190815260200160002060009054906101000a900461ffff1661ffff161115156103bd57600080fd5b60006001888154811015156103ce57fe5b906000526020600020906004020160030160008b6000191660001916815260200190815260200160002060009054906101000a900461ffff1661ffff1611151561041757600080fd5b88600019168a6000191614158061047857506001808881548110151561043957fe5b906000526020600020906004020160030160008c6000191660001916815260200190815260200160002060009054906101000a900461ffff1661ffff16115b151561048357600080fd5b600560008b600019166000191681526020019081526020016000209550600560008a600019166000191681526020019081526020016000209450600090505b601460ff168160ff16101561055f57846001018160ff166014811015156104e557fe5b601091828204019190066002029054906101000a900461ffff16866001018260ff1660148110151561051357fe5b601091828204019190066002029054906101000a900461ffff1601828260ff1660148110151561053f57fe5b602002019061ffff16908161ffff168152505080806001019150506104c2565b6106048560000160019054906101000a900461ffff168760000160019054906101000a900461ffff16018660000160039054906101000a900461ffff168860000160039054906101000a900461ffff16018760000160059054906101000a900461ffff168960000160059054906101000a900461ffff16018860000160079054906101000a900461ffff168a60000160079054906101000a900461ffff160186610ec9565b80945081955050506106328a60018981548110151561061f57fe5b9060005260206000209060040201611162565b6106588960018981548110151561064557fe5b9060005260206000209060040201611162565b83600019163373ffffffffffffffffffffffffffffffffffffffff167ffcf4fa0e6d7b2ac7b1b8908e58ae4f103c5275d10d00a2212fa04aa9e1b3acb260405160405180910390a38397505050505050505092915050565b6106b86114a8565b600082826020018190525060018080548060010182816106d89190611502565b9160005260206000209060040201600085909190915060008201518160000160006101000a81548173ffffffffffffffffffffffffffffffffffffffff021916908373ffffffffffffffffffffffffffffffffffffffff1602179055506020820151816001019080519060200190610751929190611534565b5060408201518160020160006101000a81548161ffff021916908361ffff16021790555060608201518160020160026101000a81548161ffff021916908361ffff16021790555060808201518160020160046101000a81548163ffffffff021916908363ffffffff160217905550505003905080600260003373ffffffffffffffffffffffffffffffffffffffff1673ffffffffffffffffffffffffffffffffffffffff168152602001908152602001600020819055506001600360003373ffffffffffffffffffffffffffffffffffffffff1673ffffffffffffffffffffffffffffffffffffffff16815260200190815260200160002060006101000a81548160ff0219169083151502179055503373ffffffffffffffffffffffffffffffffffffffff167f411ca9317af07545c7323b8a35f55c897af97b22cf9415d5992a5318020c7082826040518082815260200191505060405180910390a2505050565b6000601460ff168260ff161015156108ca57600080fd5b6005600084600019166000191681526020019081526020016000206001018260ff166014811015156108f857fe5b601091828204019190066002029054906101000a900461ffff16905092915050565b6000809054906101000a900473ffffffffffffffffffffffffffffffffffffffff1681565b60008061094a61142b565b61095261147b565b601460ff168561ffff1610151561096857600080fd5b600360003373ffffffffffffffffffffffffffffffffffffffff1673ffffffffffffffffffffffffffffffffffffffff16815260200190815260200160002060009054906101000a900460ff1615156109c057600080fd5b600760ff16818661ffff166014811015156109d757fe5b602002019061ffff16908161ffff1681525050610a04600160ff166008600160ff16600160ff1685610ec9565b809350819450505082600019163373ffffffffffffffffffffffffffffffffffffffff167f7843c014f46eb00a048fb58af11e1017ec145f767674b8954686394dbbc26b7960405160405180910390a3829350505050919050565b6000610a696114a8565b60008060008060208760ff16101515610a8157600080fd5b6001600260003373ffffffffffffffffffffffffffffffffffffffff1673ffffffffffffffffffffffffffffffffffffffff16815260200190815260200160002054815481101515610acf57fe5b906000526020600020906004020160a060405190810160405290816000820160009054906101000a900473ffffffffffffffffffffffffffffffffffffffff1673ffffffffffffffffffffffffffffffffffffffff1673ffffffffffffffffffffffffffffffffffffffff168152602001600182018054600181600116156101000203166002900480601f016020809104026020016040519081016040528092919081815260200182805460018160011615610100020316600290048015610bd85780601f10610bad57610100808354040283529160200191610bd8565b820191906000526020600020905b815481529060010190602001808311610bbb57829003601f168201915b505050505081526020016002820160009054906101000a900461ffff1661ffff1661ffff1681526020016002820160029054906101000a900461ffff1661ffff1661ffff1681526020016002820160049054906101000a900463ffffffff1663ffffffff1663ffffffff1681525050945060284033866020015160046040518085600019166000191681526020018473ffffffffffffffffffffffffffffffffffffffff1673ffffffffffffffffffffffffffffffffffffffff166c0100000000000000000000000002815260140183805190602001908083835b602083101515610cd85780518252602082019150602081019050602083039250610cb3565b6001836020036101000a0380198251168184511680821785525050505050509050018280548015610d2c57602002820191906000526020600020905b81546000191681526020019060010190808311610d14575b5050945050505050604051809103902093506008870260ff1660ff9060020a0292508284600190041691506008870260ff16829060020a900490508095505050505050919050565b6000809054906101000a900473ffffffffffffffffffffffffffffffffffffffff1673ffffffffffffffffffffffffffffffffffffffff163373ffffffffffffffffffffffffffffffffffffffff16141515610dcf57600080fd5b600073ffffffffffffffffffffffffffffffffffffffff168173ffffffffffffffffffffffffffffffffffffffff1614151515610e0b57600080fd5b8073ffffffffffffffffffffffffffffffffffffffff166000809054906101000a900473ffffffffffffffffffffffffffffffffffffffff1673ffffffffffffffffffffffffffffffffffffffff167f8be0079c531659141344cd1fd0a4f28419497f9722a3daafe3b4186f6b6457e060405160405180910390a3806000806101000a81548173ffffffffffffffffffffffffffffffffffffffff021916908373ffffffffffffffffffffffffffffffffffffffff16021790555050565b6000610ed361142b565b600087826020019061ffff16908161ffff168152505086826040019061ffff16908161ffff168152505085826060019061ffff16908161ffff168152505084826080019061ffff16908161ffff1681525050838260a001819052506000826000019015159081151581525050610f488261130c565b9250600060056000856000191660001916815260200190815260200160002060000160019054906101000a900461ffff1661ffff161415611067578160056000856000191660001916815260200190815260200160002060008201518160000160006101000a81548160ff02191690831515021790555060208201518160000160016101000a81548161ffff021916908361ffff16021790555060408201518160000160036101000a81548161ffff021916908361ffff16021790555060608201518160000160056101000a81548161ffff021916908361ffff16021790555060808201518160000160076101000a81548161ffff021916908361ffff16021790555060a0820151816001019060146110629291906115b4565b509050505b600260003373ffffffffffffffffffffffffffffffffffffffff1673ffffffffffffffffffffffffffffffffffffffff16815260200190815260200160002054905060066000846000191660001916815260200190815260200160002080548060010182816110d69190611651565b9160005260206000209001600083909190915055506001818154811015156110fa57fe5b906000526020600020906004020160030160008460001916600019168152602001908152602001600020600081819054906101000a900461ffff168092919060010191906101000a81548161ffff021916908361ffff16021790555050509550959350505050565b8060030160008360001916600019168152602001908152602001600020600081819054906101000a900461ffff16809291906001900391906101000a81548161ffff021916908361ffff16021790555050806003016000836000191660001916815260200190815260200160002060009054906101000a900461ffff1661ffff166000141561121a57806003016000836000191660001916815260200190815260200160002060006101000a81549061ffff02191690555b6006600083600019166000191681526020019081526020016000206000611241919061167d565b600560008360001916600019168152602001908152602001600020600080820160006101000a81549060ff02191690556000820160016101000a81549061ffff02191690556000820160036101000a81549061ffff02191690556000820160056101000a81549061ffff02191690556000820160076101000a81549061ffff02191690556001820160006112d5919061169e565b505081600019167f24168a8f4a3c6bc6fa9cbfa62bbebf0485463a8b4f6698fce7162a1edc14578660405160405180910390a25050565b600081602001518260400151836060015184608001518560a00151604051808661ffff1661ffff167e010000000000000000000000000000000000000000000000000000000000000281526002018561ffff1661ffff167e010000000000000000000000000000000000000000000000000000000000000281526002018461ffff1661ffff167e010000000000000000000000000000000000000000000000000000000000000281526002018361ffff1661ffff167e0100000000000000000000000000000000000000000000000000000000000002815260020182601460200280838360005b8381101561140e5780820151818401526020810190506113f3565b505050509050019550505050505060405180910390209050919050565b61032060405190810160405280600015158152602001600061ffff168152602001600061ffff168152602001600061ffff168152602001600061ffff1681526020016114756116ac565b81525090565b610280604051908101604052806014905b600061ffff1681526020019060019003908161148c5790505090565b60a060405190810160405280600073ffffffffffffffffffffffffffffffffffffffff1681526020016114d96116d9565b8152602001600061ffff168152602001600061ffff168152602001600063ffffffff1681525090565b81548183558181151161152f5760040281600402836000526020600020918201910161152e91906116ed565b5b505050565b828054600181600116156101000203166002900490600052602060002090601f016020900481019282601f1061157557805160ff19168380011785556115a3565b828001600101855582156115a3579182015b828111156115a2578251825591602001919060010190611587565b5b5090506115b09190611784565b5090565b826014600f016010900481019282156116405791602002820160005b8382111561161057835183826101000a81548161ffff021916908361ffff16021790555092602001926002016020816001010492830192600103026115d0565b801561163e5782816101000a81549061ffff0219169055600201602081600101049283019260010302611610565b505b50905061164d91906117a9565b5090565b815481835581811511611678578183600052602060002091820191016116779190611784565b5b505050565b508054600082559060005260206000209081019061169b9190611784565b50565b506000815560010160009055565b610280604051908101604052806014905b600061ffff168152602001906001900390816116bd5790505090565b602060405190810160405280600081525090565b61178191905b8082111561177d57600080820160006101000a81549073ffffffffffffffffffffffffffffffffffffffff021916905560018201600061173391906117da565b6002820160006101000a81549061ffff02191690556002820160026101000a81549061ffff02191690556002820160046101000a81549063ffffffff0219169055506004016116f3565b5090565b90565b6117a691905b808211156117a257600081600090555060010161178a565b5090565b90565b6117d791905b808211156117d357600081816101000a81549061ffff0219169055506001016117af565b5090565b90565b50805460018160011615610100020316600290046000825580601f10611800575061181f565b601f01602090049060005260206000209081019061181e9190611784565b5b505600a165627a7a7230582001d65015cd833c9cdf8373c3f05c639cc0bce1e405b92001e115e3a0dd1a071a0029",
  "source": "pragma solidity ^0.4.18;\n\nimport \"zeppelin-solidity/contracts/ownership/Ownable.sol\";\n\ncontract CryptArtifacts is Ownable {\n  uint32 constant REST_PERIOD = 60 minutes;\n  uint8 constant MAX_FIELDS = 20; //Change Artifacts.fields accordinaly\n  uint8 constant INITIAL_FIELD_VALUE = 7;\n  uint8 constant INITIAL_LEVEL_VALUE = 1; //must be > 0\n  uint8 constant INITIAL_WEIGHT_VALUE = 1;\n  uint8 constant INITIAL_SIZE_VALUE = 1;\n  uint16 constant NEXT_LEVEL_EXPERIENCE = 1000;\n  uint8 constant UNIQUE_FROM_LEVEL = 20;\n\n  struct Artifact {\n    bool trading;\n    uint16 level;\n    uint16 artModifier;\n    uint16 weight;\n    uint16 size;\n    uint16[20] fields; \n  }\n\n  struct Master {\n    address source;\n    string name;\n    uint16 experience;\n    uint16 level;\n    uint32 restUntil;\n    mapping(bytes32 => uint16) stash;\n  }\n\n  Master[] private masters;\n  mapping(address => uint) addressToMaster;\n  mapping(address => bool) masterExist;\n\n  bytes32[] artsInTrading;\n  mapping(bytes32 => Artifact) artifacts;\n  mapping(bytes32 => uint[]) artifactToMaster;\n\n  event ArtOrdered(address indexed sender, bytes32 indexed artId);\n  event ArtDestroyed(bytes32 indexed artId);\n  event ArtMixed(address indexed sender, bytes32 indexed artId);\n  event MasterCreated(address indexed sender, uint masterId);\n\n  function CryptArtifacts() public {\n    regMaster(\"Admin\");\n  }\n\n  function orderArt(uint16 _fieldId) public payable returns(bytes32) {\n    require(_fieldId < MAX_FIELDS);\n    require(masterExist[msg.sender]);\n\n    bytes32 artId;\n    Artifact memory art;\n    uint16[20] memory fields;\n    fields[_fieldId] = INITIAL_FIELD_VALUE;\n\n\n    (artId,art) = _createArt(\n      INITIAL_LEVEL_VALUE,\n      8,\n      INITIAL_WEIGHT_VALUE,\n      INITIAL_SIZE_VALUE,\n      fields\n    );\n\n    ArtOrdered(msg.sender, artId);\n    return artId;\n  }\n\n  function _createArt(\n    uint16 level, \n    uint16 artModifier,\n    uint16 weight,\n    uint16 size,\n    uint16[20] fields) \n    internal \n    returns(bytes32 artId, Artifact art) \n  {\n    //Artifact memory art;\n    art.level = level;\n    art.artModifier = artModifier;\n    art.weight = weight;\n    art.size = size;  \n    art.fields = fields;  \n    art.trading = false;\n\n    artId = _artifactHash(art);\n    if (artifacts[artId].level == 0) {\n      artifacts[artId] = art; \n    } \n\n    uint masterId = addressToMaster[msg.sender];\n    artifactToMaster[artId].push(masterId);\n    masters[masterId].stash[artId]++; \n  }\n\n  function regMaster(string _name) public {\n    Master memory master;\n    master.name = _name;\n\n    uint masterId = masters.push(master) - 1;\n    addressToMaster[msg.sender] = masterId;\n    masterExist[msg.sender] = true;\n\n    MasterCreated(msg.sender, masterId);\n  }\n\n  function _artifactHash(Artifact art) private pure returns(bytes32) {\n    return keccak256(\n      uint16(art.level),\n      uint16(art.artModifier),\n      uint16(art.weight),\n      uint16(art.size),\n      art.fields);\n  }\n\n  function mixArts(bytes32 _artId1, bytes32 _artId2) public returns(bytes32) {\n    require(artifacts[_artId1].level > 0);\n    require(artifacts[_artId2].level > 0);\n\n    uint masterId = addressToMaster[msg.sender];\n    require(masters[masterId].stash[_artId1] > 0);\n    require(masters[masterId].stash[_artId2] > 0);\n    require((_artId1 != _artId2) || (masters[masterId].stash[_artId1] > 1));\n\n    var art1 = artifacts[_artId1];\n    var art2 = artifacts[_artId2];\n\n    bytes32 artId;\n    Artifact memory art;\n    uint16[20] memory fields;\n\n    for (uint8 i = 0; i < MAX_FIELDS; i++) {\n      fields[i] = art1.fields[i] + art2.fields[i];  \n    } \n\n    (artId,art) = _createArt(\n      art1.level + art2.level,\n      art1.artModifier + art2.artModifier,\n      art1.weight + art2.weight,\n      art1.size + art2.size,\n      fields\n    );\n\n    _destroyArtifact(_artId1, masters[masterId]);\n    _destroyArtifact(_artId2, masters[masterId]);\n\n    ArtMixed(msg.sender, artId);\n    return artId;\n  }\n\n  function _destroyArtifact(bytes32 _artId, Master storage _master) internal {\n    _master.stash[_artId]--;\n    if (0 == _master.stash[_artId]) {\n      delete(_master.stash[_artId]);\n    }    \n    delete(artifactToMaster[_artId]);\n    delete(artifacts[_artId]);   \n\n    ArtDestroyed(_artId);\n  }\n\n  function getRandValue(uint8 idx) public view returns(uint8) {\n    require(idx < 32);\n    Master memory master = masters[addressToMaster[msg.sender]];\n    bytes32 val = keccak256(block.blockhash(40), msg.sender, master.name, artsInTrading);\n    //bytes32 val = 0xafd0ecb8cf5be84065c75db7381d239b6f8b9924ec67711556c20d436e8375cb;\n    uint256 mask = uint256(0xff) << (idx * 8);\n    uint256 maskedVal = uint256(val) & mask;\n    uint8 output = uint8(maskedVal >> (idx * 8));\n    return output;\n  }\n\n  /*function getArtifact(uint _artId) \n    public \n    view \n    returns(\n      uint16 level,\n      uint16 artModifier,\n      uint16 weight,\n      uint16 size,\n      uint16[20] fields) \n  {\n    Artifact storage art = artifactsArr[_artId];\n    level = art.level;\n    artModifier = art.artModifier;\n    weight = art.weight;\n    size = art.size;\n    fields = art.fields;\n  }*/\n\n  /*function getArtifact(uint _artId) \n    external \n    view\n    returns(bytes32) \n  {\n    Artifact memory art = artifactsArr[_artId];\n    bytes32 artHash = _artifactHash(art);\n    return artHash;\n  }*/\n\n  /*function getArtModifier(uint _artId) \n    external \n    view\n    returns(uint16) \n  {\n    Artifact memory art = artifactsArr[_artId];\n    return art.artModifier;\n  }*/\n\n  function getArtifactField(bytes32 _artId, uint8 _fieldId) public view returns(uint16) {\n    require(_fieldId < MAX_FIELDS);\n    return artifacts[_artId].fields[_fieldId];\n  }\n\n}",
  "sourcePath": "/opt/storage/albert/Projects/cryptoArt/contracts/CryptArtifacts.sol",
  "compiler": {
    "name": "solc",
    "version": "0.4.18+commit.9cf6e910.Emscripten.clang"
  },
  "schemaVersion": "1.0.1",
  "updatedAt": "2018-02-02T09:28:09.724Z"
}